:020000040000FA
:10000000180D0020D5000000852200001B220000F2
:1000100000000000000000000000000000000000E0
:10002000000000000000000000000000CB230000E2
:1000300000000000000000008B220000E926000004
:10004000370E0000390E00003B0E00003D0E000090
:10005000350E0000000000009D270000AD270000C5
:100060008122000000000000C92300000000000001
:1000700021220000000000008527000089270000E1
:100080007F22000000000000992700009B2700004D
:100090000000000089220000152A00007D220000D7
:1000A000D10D000083220000132A00000000000090
:1000B000D30D000087220000B9220000130E0000BB
:1000C0000348854600F0EEFB004800473939000040
:1000D000180D00200448804704480047FEE7FEE76B
:1000E000FEE7FEE7FEE7FEE745270000C10000004F
:1000F00030B50B46014600202022012409E00D46C0
:10010000D5409D4205D31D469540491B2546954047
:1001100040191546521E002DF1DC30BD70B500248B
:100120002546002801DA01244042002901DA012590
:100130004942FFF7DDFFAC4200D04042002C00D026
:10014000494270BD10B5202A04DB0846203AD04051
:10015000002110BD0B46D340D0402024A21A91406C
:100160000843194610BD03460B439B0703D009E023
:1001700008C9121F08C0042AFAD203E00B780370E2
:10018000401C491C521EF9D27047D2B201E00270E5
:10019000401C491EFBD270470022F6E710B51346FB
:1001A0000A4604461946FFF7F0FF204610BD421CE0
:1001B0000178401C0029FBD1801A704730B50546F4
:1001C0000020034600E05B1C934205D2EC5CC85C57
:1001D000201A01D1002CF6D130BD70B5064602F0D0
:1001E0007FFC046805460A220021304600F082FAAE
:1001F0002C6070BDF0B507460846584087B0C00F68
:10020000049048000E46590040084908BC1A88412D
:1002100005D2384631461E4617460B460246580060
:10022000400810434CD0300D039040055900400D5C
:10023000490D0590401A0290402872DA18030121F6
:10024000000B09050843019004980092002805D08E
:100250000199524200208841009201900298402169
:100260000A1A0199009800F0CFF905460C466B4632
:1002700007CB00F0D9F9C0197141039A0E0D002384
:10028000D71756401A467A40164344D0049A002A9B
:100290002DD0029A012A039A15DC1205C01A914149
:1002A00001263605001C7141D20F059ED20700932E
:1002B000019202962A46234600F0A2FA07B0F0BD4A
:1002C00038463146FAE71605224A0F46B218C01AD8
:1002D000B74101210905001C4F4100187F4111461B
:1002E00018187941E20F10436D19644113E0E207D9
:1002F0006D0815436408C2071443039A01261205CA
:10030000C01A91413605001C7141CE0740083043A8
:100310004908C01851412A46234600F064FACDE747
:10032000FFE7049801224000C117121A00238B41F5
:1003300004983146C417381AA141EEE730B40124BD
:10034000E407634030BC55E730B40124E407614062
:1003500030BC4FE70000E0FFF0B51FB488B00B9948
:100360000998002448400999C00F4900490809919B
:10037000C0070B990090490049080B91099908980A
:10038000A64608431CD00B990A98084318D0099830
:1003900001244000420D4800410D09982405000346
:1003A000000B204309900B980003000B20430B9097
:1003B00050181C494018002201901446104605E0D0
:1003C000002001460DB0F0BD032801DA034600E02D
:1003D00003239C46C11A0AAE0AE05F0008ADED5B3C
:1003E0004F00F75B7D430027AA187C41491C5B1E28
:1003F0006145F2DD410004AB5A522104120C0A435C
:10040000240C401C0828DFDB0198029000997046FC
:1004100001910090059B049A0799069800F0F0F965
:10042000D0E700000DFCFFFFF0B50C465C4085B046
:10043000E40FE40703944C00002664085900944636
:10044000490802460296224321D062460A431ED042
:100450006200570D4A000E032303550D0124024686
:100460002C492405781B1B0B360B401823432643CD
:10047000614600901C46501AB44103D30098401CBA
:10048000009002E0921800985B41002803DA0020F7
:10049000014605B0F0BD002001210905074686464A
:1004A00011E064461D46141BB54106D36546521B38
:1004B000B341744607430C43A646CD07400849089C
:1004C000284392185B4105460D43EAD11046184374
:1004D00013D06046194650407140084306D060462C
:1004E000101AB34106D20122002306E000220123A4
:1004F000DB0702E00122D243531000987446010545
:10050000381C6141029C039D0019694100F06BF9A0
:10051000BFE70000FD0300000EB505490291002170
:1005200000910A460B46019100F06AF903B000BD44
:10053000330400004A0009030123090B1B0519437A
:10054000094B10B5520D9A4201DA002010BD064B3E
:1005500034339A4203DC9A1AFFF7F4FD10BD0349C5
:100560005118884010BD0000FF030000CDFBFFFFC5
:10057000CB0FDB07490010B5490802460A4307D0F4
:100580000A0D07240903E401090B121B002A01DCF0
:10059000002010BDC900440F0C43C100E018D20573
:1005A000801800F0DFF810BDF0B51FB4064600203B
:1005B00082B005464024019100901BE0019922463B
:1005C0000F463046FFF7BEFD049A059B801A9941FD
:1005D00010D310461946224600F016F8361A8F41FD
:1005E0000197224601200021009F00F00DF83818E5
:1005F0004D4100902046641E0028DFDC019B0098DE
:100600002946324607B0F0BD10B5202A04DB01466A
:10061000203A9140002010BD914020239C1A0346AF
:10062000E3401943904010BD10B5202A06DBCB17DC
:100630000846203A1041C1170B4306E00B46134110
:10064000D0402024A21A91400843194610BD000052
:100650000FB400B589B00CA900910B990023CB60B1
:10066000204B214A06930792042201921F4A0292CC
:100670001F4A089202466B46002000F0AEF909B00E
:1006800008BC04B0184770B586B006460020C043C9
:100690000190002015460C460091029104903246CC
:1006A000694604A8FFF7D4FF034604982118002DDB
:1006B00005D0002801D00A4600E022462A60002822
:1006C0000DD0002B02DD0098884208D0081B019055
:1006D000009432466946029404A8FFF7B9FF06B0B9
:1006E00070BD0000310C0000510C0000FFFFFF7FC7
:1006F000D1080000F7B5009C0F4600262578641C41
:10070000002D05D000F0E0F80068405DC007F5D18D
:100710002B2D02D02D2D18D0641E39462046029A6A
:1007200000F0A8FA002F04D03968A14201D1009945
:1007300039607105022400290BDA4042002803DDEC
:1007400002F0CEF90460A007FEBD0120800206433E
:10075000E3E70028F8DA02F0C3F904600048FEBDC0
:10076000FFFFFF7F002904DA401C490001D1400847
:100770004000704770B40024050C05D1102400041B
:1007800002D1002921D01124050E01D10002083424
:10079000050F01D10001241D850F01D18000A41C8B
:1007A000002801DB4000641C002908D020252E1BF6
:1007B0000D46F540A14000D0012129430843010620
:1007C0001B1B000ADB1D02D5002070BC7047DB0537
:1007D000181880180029F8DA401C4900F5D170BCBF
:1007E00040084000704710B5002B08DA0024401C78
:1007F000614192185B411A4301D14008400010BD8D
:10080000F0B51FB482B005460C0003D0084602F0D4
:1008100013F902E002F010F9203002460090214660
:100820002846FFF7F1FE049B059A04460F4618433D
:100830001143084314D0184610431BD000984021A0
:100840000A1A18460599FFF77DFC05460E46009AE0
:1008500005990498FFF7D8FE084305D0012004E06D
:100860002046394607B0F0BD0020C11705430E43AE
:100870002C43374300990E986305401A7905E40A22
:1008800000220C43FD0A0A3002D500200146E9E7A8
:100890000105101969410C9C0D9D00196941FFF774
:1008A000A2FFDFE7064C0125064E05E0E36807CC12
:1008B0002B430C3C98471034B442F7D3FFF704FCA9
:1008C0007C4100009C4100000048704778410000D6
:1008D00010B50446FFF7F8FF0068005DC007C00FC1
:1008E00010BD0000FFB5087885B01546FF2805D07B
:1008F000491C2D2804D00022002407E000240BE02E
:100900000122F9E70A235C430419491C0878FF28EF
:10091000F8D1002A00D06442002001902A780146D4
:100920002D2A01D02B2A04D16D1C2D2A0DD0002296
:10093000019200262F78FF2F09D00A2200236D1C78
:1009400000F0EBF938187141F4E70122F0E7089A5A
:10095000A218039202460A430DD00024B24AB14DB8
:100960002646009200F026FA04900398029100288F
:1009700007DA47421AE0002105980A4606C009B086
:10098000F0BD074612E0F80707D022462B46304656
:100990000099FFF7E1FC0646009122462B461046DF
:1009A0001946FFF7D9FC04460D467F10002FEAD107
:1009B0000398009B002802990498324602DAFFF758
:1009C00033FD01E0FFF7C8FC019A002A02D00122A2
:1009D000D2075140059A03C2D1E7FFB591B000207C
:1009E00009900025ED432E209E685C681F4601900B
:1009F000B9696D1C129888470090396A88470028A9
:100A0000F6D10098401C0AD00D20C0018443002E6E
:100A100012DD00982B2809D02D280DD103E00020ED
:100A2000C04315B0F0BD012080020443B9696D1CBC
:100A300012988847761E009003A9600501D52D20E5
:100A400000E02B206A461073491C0CA80F910290FD
:100A50000AE0B9696D1C1298884700900120400295
:100A600004431398761E0560002E02DD009830289E
:100A7000EFD001990098884246D18020044308E0D5
:100A80000998401E09900120400204431399681CF4
:100A90000860B9696D1C761E12988847009030284E
:100AA000EED031E00199884205D1200603D48020A0
:100AB0000443761E1EE0009802F032F8002826D08B
:100AC00001204002044307A90F980331761E884293
:100AD0000BD200980F99303808700F98401C0F9077
:100AE000200607D50998401E03E0200602D4099885
:100AF000401C0990A00502D51399681C0860B969CB
:100B00006D1C129888470090002ECBDC59E0002E17
:100B100057DD0098652801D0452852D1A00550D551
:100B2000032000028443B9696D1C761E1298884721
:100B30000090002E0CDD2B2804D02D2808D1FF209A
:100B400001300443B9696D1C12988847761E0090E5
:100B5000E00501D52D2100E02B21029801700298BB
:100B6000401C0290019025E00120400204430EA9A0
:100B700002980131761E88420ED2009802993038D0
:100B80000006000E087003D10299019881420AD92B
:100B90000298401C029006E0E00501D5234801E0E0
:100BA000224840420990B9696D1C1298884700900C
:100BB00013980560002E04DD009801F0B1FF0028B5
:100BC000D2D1F969129888470F99FF2008700299CD
:100BD00003AA087000200A900B900CA90AA8099B90
:100BE000FFF780FEA00502D40120C04319E72420AE
:100BF000044209D0E00713D138680B9A0A99031D03
:100C00003B60006806C00BE00B990A98FFF7B0FC48
:100C10000146E00704D13868021D3A6000680160AF
:100C20002846FEE6000024400000F03FF1D8FFFF18
:100C30004268002A08D001680B78491C002B03D0B9
:100C4000521E06C0184670470121C160881E7047B9
:100C50004268002A0BD0C3680168002B07D1836863
:100C60008B4204D0491E521C06C000207047002051
:100C7000C0437047F7B582B0029C00272078641CFF
:100C800015460197302802D0002D15D015E02078A8
:100C90000127641C782804D0582802D0002D09D0E0
:100CA0000BE0002D01D0102D07D100271025207852
:100CB000641C02E0082500E00A250026009610E0EA
:100CC0000099012769430818020C294680B2714334
:100CD00000908E183804864201D3012001902078BC
:100CE000641C294600F056F80028E9DA0398002829
:100CF00005D0002F01D0641E00E0029C0460019822
:100D0000002806D001F0ECFE02210160C81E05B0EB
:100D1000F0BD009930040843F9E7F0B51FB486B080
:100D200000200090019002900698069980B20490ED
:100D30000798090C02040014114307900027089D2E
:100D4000099806913E463C4603900398A9B20204D6
:100D5000000C039004982D0C1543484300212246B3
:100D6000FFF752FCC719714110340E46402CECDBE2
:100D70003846029AFFF748FC009A019B80180090C1
:100D8000594102980191103002904028CCDB009824
:100D90000BB0F0BD3A2800D23038202302469A43E7
:100DA000412A01D310463738884201D30020C0437E
:100DB000704700000EB5054A0292002200921346C9
:100DC0000192FFF71DFD03B000BD000033040000D9
:100DD000704770470268120B120302600B684A6882
:100DE0001A438B681A43CB681A430B691A434B6941
:100DF0001A438B691A43CB691A4302600A69402A75
:100E000004D10A6A42600A6A826101E00A6A4260A9
:100E10007047704710B502A001F0FEFD10BD000044
:100E20004572726F725F48616E646C657220210D4D
:100E30000A0000007047704770477047704710B550
:100E40000446002C01D1012010BD2920005D00289E
:100E500005D1002128200155204600F00CF8022180
:100E600029200155211D2068FFF7B4FF0121292009
:100E700001550020E8E77047014608680068202215
:100E800010430A68106008680068802210430A68EE
:100E900010600020704710B5044620680069C00744
:100EA000C00F01214840484000280FD0206800684A
:100EB000202108404009002808D02068406901210D
:100EC000084321684861204600F002F810BD000088
:100ED0000E490978491C0D4A11700D490978491CC1
:100EE0000B4A11700B490988491C0A4A11801146A6
:100EF0000988094A914207DD0021064A1180074905
:100F00000988491C054A1180704700000200002032
:100F1000030000200400002060EA0000060000201A
:100F200070B5044600F060F906462546681C0028A6
:100F300002D0054800782D1800BF00F055F9801B3D
:100F4000A842FAD370BD000024000020F8B50B467B
:100F50000024002500950022002131E101258D406B
:100F60002C461D6825400095009DA5427ED105694F
:100F700001268E40B5430561056A01268E40B543C2
:100F80000562456A01268E40B5434562856A0126A1
:100F90008E40B5438562856C8F000F26BE40B543F9
:100FA0008564056801268E40B5430560456BFF26C4
:100FB0008E40B5434563056C01268E40354305647C
:100FC000C56B4F000326BE40B543C5635D68022D67
:100FD0000DD1826C4D07EE0E0F25B5401646AE437F
:100FE00032464E07F60E1D6BB5402A4382645D689B
:100FF000042D08D1826C4D07EE0E0F25B540164624
:10100000AE43324682645D68032D0DD1826C4D077C
:10101000EE0E0F25B5401646AE4332464D07EE0E96
:101020000F25B5402A4382645D68002D08D102680F
:101030004E07760F0125B5401646AE433246026094
:101040005D68012D0CD102684E07760FB54016463B
:10105000AE4332464E07760F0125B5402A43026063
:101060001D69012D14D1856B9E6900E09CE035431C
:101070008563426B4E07760F0125B5401646AE4399
:1010800032464E07760F1D69B5402A43426322E07F
:101090005D69012D16D1426B4E07760FB54016469D
:1010A000AE4332464263826B10261546B5432A464C
:1010B0008263426B36011546B5432A465D692A4371
:1010C000426308E0426B4E07760F0125B540164695
:1010D000AE4332464263456BEDB2002D05D0856BC1
:1010E0001E6936013543856303E0856B1026B543E1
:1010F0008563C26B4E000325B5401646AE433246AB
:101100004E009D68B5402A43C263426803258D4066
:101110001646AE433246DD688D402A434260026C7B
:1011200001258D401646AE433246DD698D402A4387
:101130000264426C01258D401646AE4332461D6A5C
:101140008D402A434264012636075D683540B5422A
:1011500035D1026901258D401646AE4332465D6A9F
:101160008D402A430261026A01258D401646AE4336
:1011700032469D6A8D402A430262DD6A002D02D00C
:10118000DD6A012D11D1826A01258D401646AE43DC
:1011900032468262426A01258D401646AE4332468F
:1011A000DD6A8D402A43426209E0826A01258D4052
:1011B0001646AE43324601258D402A438262491CC1
:1011C000082900D2CAE6F8BD0246D3680B40002BBE
:1011D00001D0012000E000207047002A01D0C16248
:1011E00000E001637047000001480068704700009C
:1011F0001C000020002906D00268126804231A434C
:1012000003681A6005E00268126804239A430368C1
:101210001A60704730B503460C460225184600F0A8
:101220000FF8002803D01868C06820600125284600
:1012300030BD016809680822914302681160704757
:1012400001460868006808221040C008704770B561
:101250000446A57F102D03D1204600F07EF802E061
:10126000204600F0BDF870BD70B504460025002C86
:1012700001D1012070BD607F002803D12077204676
:1012800000F06CF8206800684021884321680860FD
:1012900000F0C2FA06467D21C900FEF729FF054687
:1012A0002269D100D200A81AFEF722FF0546A068E5
:1012B00001281DD0206800680421084321680860C7
:1012C00020688068E1684900084321688860606997
:1012D000012806D0206880680121084321688860C1
:1012E0000CE020688068400840002168886005E0C4
:1012F000206800680421884321680860606800282D
:1013000008D0E8B2216848612068006901210843DB
:1013100021680861FF2191312069884206D2206846
:101320000068400840002168086005E02068006807
:1013300001210843216808602068006840210843B3
:10134000216808602046FFF774FF00202062022019
:1013500060770120A06100208CE7704710B58EB047
:10136000044600BF1748C068042108431549C860F7
:101370000846C06804210840009000BF00BF342127
:1013800001A8FEF709FF40200190022002900420EE
:101390000D900120049000200590089009900120F4
:1013A000039001A90848FFF7D1FD202001900420F7
:1013B0000D9001200890099001A90348FFF7C6FD90
:1013C0000EB010BD00000240001C024010B50346E4
:1013D0000C46186844601846FFF72BFF10BD00004C
:1013E00038B50446FF2000906946204600F0AAF870
:1013F0000098A02844D004DC602807D080287BD146
:1014000011E0A82844D0B828F9D142E00020424990
:1014100008704249087001204149087001212046A6
:10142000FFF7E8FE73E0206840683E4908703C48DA
:10143000007800280BD0002039490870394800781E
:1014400039490870084600783449087013E0364876
:101450000078B0280FDA334800783449324A1278DD
:10146000885431480078401C2F4908702A48007879
:10147000401C2949087001212046FFF7BBFE46E0C9
:1014800025480078002802D00120294908703EE054
:1014900000BF2548007821280FD12648008826491A
:1014A00088420ADA234801880088401C214A1080BB
:1014B0002248405C2249087022E01B480078B0288E
:1014C0001BDA1A4818490978405C1D49087016480B
:1014D00000782A280AD1154813490978405C012868
:1014E00004D100201149104A127888540E4800781F
:1014F000401C0D49087003E008E0FF201049087007
:101500000F4801782046FFF761FF00E000BF00BFF1
:101510002046FFF78EFE38BD090000200A0000209B
:101520000E0000200C0000200D00002020040020F0
:1015300008000020100000202C050000EC05002011
:101540000B000020F3B581B00546002600270224D9
:101550000A26FFF749FE074600BF28460299FFF713
:1015600059FE0446FFF740FEC01BB04201D2022CD8
:10157000F3D0012C01D10120FEBD0020FCE70000CA
:10158000034800680349097840180149086070471A
:101590001C0000202400002010B5032000F004F8F7
:1015A00000F02CF8002010BD70B5044610480178FA
:1015B0007D20C000FEF79CFD064631460D480068C0
:1015C000FEF796FD054600F0CDFB002801D0012076
:1015D00070BD042C07D221460020C04300F022F841
:1015E0000548046001E00120F2E70020F0E7000078
:1015F0002400002028000020200000207047000068
:101600000146002909DB00BF00BFCB06DB0E01222B
:101610009A40034B1A6000BF00BF00BF7047000034
:1016200000E100E070B504460D462946204601F071
:101630001BFA70BD70B504460025022120680840E1
:10164000022814D1042120680840042807D16948E1
:101650004068000A0002E16808436649486065483E
:101660000068000A0002A168084362490860207807
:10167000C007C00F002853D06068012809D15D4819
:10168000806A012109030840000B002823D10120B2
:1016900070BD6068022808D15648C06A40210840E1
:1016A0008009002817D10120F2E76068042809D1D9
:1016B0005048006B012109030840000B00280AD1A3
:1016C0000120E5E74B48406B402108408009002895
:1016D00001D10120DCE700BF47484649403108629C
:1016E000464960680843434948624348401E4149AF
:1016F0004031086200BFFFF777FD054660680128AA
:101700000FD107E0FFF770FD401B3D49884201D92A
:101710000320BDE73748406A0007000F0128F1D1D8
:1017200037E0606802280FD107E0FFF75DFD401B3E
:101730003349884201D90320AAE72E48406A0007AE
:10174000000F0228F1D124E0606804280FD107E0DF
:10175000FFF74AFD401B2A49884201D9032097E739
:101760002448406A0007000F0428F1D111E06068A6
:1017700008280ED107E0FFF737FD401B20498842BB
:1017800001D9032084E71B48406A0007000F08289E
:10179000F1D1042120680840042807D11548406889
:1017A000000A0002E16808431249486011480068D5
:1017B000C0B200280BD000F043F846080D4800687E
:1017C000C1B23046FEF794FC0E49086003E000F019
:1017D00037F80C4908606068042802D0606808285F
:1017E00002D10A20084908700320FFF7DDFE00201F
:1017F0004EE70000000002409966AA550000695AB1
:101800008813000028000020240000200148006800
:10181000704700002800002010B5084840680028E4
:1018200008D0FFF7F3FF4408044841682046FEF75C
:101830005FFC10BDFFF7EAFFFBE70000000002407D
:1018400000210020244A516A0A07120F012A04D0FD
:10185000022A36D0042A39D135E01F4A926A12058D
:10186000120D1E4B1B889A4201D11D4828E01A4ACE
:10187000926A1205120D194B5B889A4201D11948E0
:101880001EE0154A926A1205120D144B9B889A426B
:1018900001D1154814E0104A926A1205120D0F4B3F
:1018A000DB889A4201D111480AE00B4A926A12057C
:1018B000120D0A4B1B899A4201D10D4800E00C48D9
:1018C00007E00A4805E04B20400202E00120C00387
:1018D00000BF00BF7047000000000240A0000018D9
:1018E00000366E01408651010024F40000127A0097
:1018F00000093D0070B5044600252078C007C00FE0
:1019000000282DD0FC48406A0007000F012828D18C
:10191000F948806A012109030840000B002804D11E
:101920006068012801D0012070BD00BFF348F24972
:101930004031086207214902A068084088420AD065
:10194000A0680840002806D020890005000DEC4959
:101950004018E9498862E948401EE7494031086279
:1019600068E0606800283FD000BFE448E2494031A9
:10197000086207214902A068084088420AD0A0688E
:101980000840002806D020890005000DDC494018D9
:10199000D9498862D948401ED7494031086200BF02
:1019A00000BF401C0862D448006AD549491C08435E
:1019B000D1490862D148401ECF494031086200BF7A
:1019C000FFF712FC054606E0FFF70EFC401B02285D
:1019D00001D90320A8E7C848806A0121090308400B
:1019E000000B0028F0D025E000BFC448C2494031B8
:1019F0000862C148006A40084000C1490843BE4926
:101A00000862BE48401EBC494031086200BFFFF773
:101A1000EBFB054606E0FFF7E7FB401B022801D978
:101A2000032081E7B448806A012109030840000BC4
:101A30000028F0D108212068084008287DD12069BD
:101A4000002854D000BFAD49AB4A4032116200209B
:101A5000A949096BC805C00D61690843A84901433C
:101A6000A54A1163A549491EA34A4032116200BF2D
:101A700000BF491C116200209F49096B032292029A
:101A800011400846218BC905C90D08439C490143F3
:101A9000994A11639949491E974A4032116200BF21
:101AA00000BF481C114608629348006A9449091D0A
:101AB0000843914908629148401E1146086200BFE0
:101AC000FFF792FB054606E0FFF78EFB401B02285E
:101AD00001D9032028E78848006B01210903084049
:101AE000000B0028F0D0012000F0D0FB25E000BF63
:101AF00082488149403108627F48006A0421884356
:101B00007F4908437C4908627C48401E7A4940313D
:101B1000086200BFFFF768FB054606E0FFF764FBBD
:101B2000401B022801D90320FEE67348006B012107
:101B300009030840000B0028F0D10221206808406A
:101B4000022876D16C48406A0007000F02280BD1AA
:101B50006948C06A402108408009002869D0E068CF
:101B6000002866D10120DFE600BF644862494031A9
:101B70000862E068022807D15F48006A6049891C52
:101B800008435D49086226E0E068002808D15A4809
:101B9000006A022188435A490843574908621AE0FB
:101BA000E068202807D15448006A5549203108438D
:101BB000514908620FE05048006A022188435049A9
:101BC00008434D4908620846006A202188434C4971
:101BD0000843494908624948401E47494031086264
:101BE00000BFE068002812D0FFF7FEFA054606E0C5
:101BF000FFF7FAFA401B642801D9032094E63E4817
:101C0000C06A4021084080090028F1D011E0FFF7A8
:101C1000EBFA054606E0FFF7E7FA401B642801D916
:101C2000032081E63448C06A40210840800900282A
:101C3000F1D104212068084004285CD100BF2F485E
:101C40002D49403108628915E069884206D12A4849
:101C5000406B2C490843284948633FE0E06900286D
:101C600017D12548406B0121890288432449084344
:101C7000214948630846406B891588432049084339
:101C80001D4948630846406B1F4908431A49486389
:101C900024E001214902E06988420ED11648406BD8
:101CA0004910884316490843134948630846406B66
:101CB000164908431049486310E00F48406BFF2164
:101CC000013188430E4908430B4948630846406B7D
:101CD000491588430A490843074948630748401E95
:101CE00005494031086200BFE069002820D0FFF7B5
:101CF0007BFA054614E02EE0000002409966AA55E2
:101D00000000695A0001695A0004695A0002695AC0
:101D1000FFF76AFA401B1149884201D9032003E604
:101D20000F48406B4021084080090028F0D012E0A5
:101D3000FFF75AFA054607E0FFF756FA401B074936
:101D4000884201D90320EFE50548406B4021084057
:101D500080090028F0D10020E6E50000881300008B
:101D60000000024070B504462546681E09498842B5
:101D700001D901200CE0681E074948610321081FB2
:101D800000F072FE002004498861072008610020ED
:101D900070BD0000FFFFFF0000E000E07047F8B5F5
:101DA000044620680569206806680027042028404A
:101DB0000746002F12D1E807C00F00280ED0F00709
:101DC000C00F00280AD0204600F0F8FC002804D0FC
:101DD0002046FFF7E3FF00202063F8BD002F20D04E
:101DE00004202840002808D0206B042108432063E9
:101DF00020684069084321684861206B00280FD0A3
:101E0000E807C00F002806D0F007C00F002802D056
:101E1000204600F0D3FC2046FFF7C0FF00202063DF
:101E2000DBE702202840002807D0022030400028AD
:101E300003D0204600F064FDCFE700BFCDE710B52A
:101E40000446002C01D1012010BD2D20005D00288A
:101E500005D100212C200155204600F00FF8242147
:101E60002D200155204600F027FD00202063202171
:101E70002D2001552E2001550020E5E710B58EB02C
:101E8000044601218907206888421ED1342101A817
:101E9000FEF782F902200190029000200490059044
:101EA000089009900120039005200D9001A91A487F
:101EB000FFF74CF8042001900220029005200D90BD
:101EC00001A91548FFF742F823E014492068884229
:101ED0001FD1342101A8FEF75FF9102001900220E4
:101EE0000290002004900590089009900120039032
:101EF00005200D9001A90A48FFF728F80820019055
:101F00000220029005200D9001A90548FFF71EF858
:101F100000BF0EB010BD00000010024000040040E1
:101F20000018024010B503462E20C05C202825D1A1
:101F3000002901D0002A01D1012010BD00BF2C20B2
:101F4000C05C012801D10220F7E701242C20C454F1
:101F500000BF59621A855A850020186322242E205A
:101F6000C45400BF00242C20C45400BF186800686B
:101F7000012420431C6820600020DEE70220DCE70B
:101F800010B504461E48A0421FD11E480078802884
:101F900012DA1D490A781B490878411C194B19703F
:101FA0001A490A5419460878C117490E0918C91167
:101FB000C901411A1A461170002015490870012202
:101FC00011490F48FFF7AEFF18E01248A04215D1A3
:101FD000114800881149884208DA11490A780E49E7
:101FE0000888411C0C4B19800E490A5400200E49E8
:101FF000087001220A490748FFF794FF10BD00004E
:10200000D004002014000020180000206C050020DF
:102010000200002004050020160000202C0500000E
:1020200019000020EC05002003000020FEB5044646
:102030000D4616461F46002001902D20005D2028E9
:102040007ED1002D01D0002E01D10120FEBD00BFA8
:102050002C20005D012801D10220F7E701212C206E
:10206000015500BF0020206321212D200155FFF7DD
:10207000BBF80190206800680221084321680860CD
:102080002684668450E0608C401E60842069C028ED
:1020900035D1606901280CD1206800680821884387
:1020A00029782A4A515CC907090F0843216808604A
:1020B0000FE0606902280CD120680068082188437D
:1020C0002978224A525C01219143C90008432168C2
:1020D000086028786D1C2168486000970022022162
:1020E0002046019B00F064FC002801D00320ADE7EE
:1020F00020684069022108432168486114E028787B
:102100006D1C216848600097002202212046019B37
:1021100000F04EFC002801D0032097E720684069BA
:102120000221084321684861608C0028ABD120213E
:102130002D20015500BF00212C20015500BF00E0DB
:1021400001E0002082E7022080E70000F43F000069
:1021500030B503462D20C05C202859D1002901D07C
:10216000002A01D1012030BD00BF2C20C05C012815
:1021700001D10220F7E701242C20C45400BFD9610B
:102180001A845A840020186321242D20C45400BFCF
:1021900000242C20C45400BF186800680224204387
:1021A0001C6820601869C02828D1586901280CD102
:1021B000186800680824A0430C78164D2C5DE407CD
:1021C000240F20431C6820600FE0586902280CD1BE
:1021D000186800680824A0430C780E4D2D5D01247A
:1021E000AC43E40020431C6820600878491C1C684C
:1021F0006060D961588C401E588407E00878491CFB
:102200001C686060D961588C401E58840020AAE781
:102210000220A8E7F43F0000704700BFFEE700007F
:1022200010B50248FFF713F810BD00006000002051
:1022300010B51048104908600020486000210E4881
:10224000816020200C49887766210B48C1600121FC
:102250004161642101610020074948770846FFF782
:1022600003F800210C20FFF7DDF90C20FFF7C8F977
:1022700010BD0000000C0040600000207047704757
:1022800070477047704770477047704738B50446CD
:1022900008490968C8087D21C900FDF729FF604386
:1022A000009000BF00BF0098411E00910028F9D1A6
:1022B00038BD00002800002070470000F8B5074630
:1022C0000C461546002C02D105A000F0A5FB2646C1
:1022D000EAB23146384601F0FFFBE8B2F8BD000033
:1022E00070427566204552524F522121203A206E8D
:1022F000756C6C20706F696E74657200F8B5074676
:102300000C461546002C02D119A000F085FB26468C
:102310008021009101226946102001F045FE0A202B
:10232000FEF7FEFDFF210091012269460F2001F01A
:102330003BFE0A20FEF7F4FDEAB23146384601F0D2
:1023400033FE0A20FEF7ECFD7B2100910122694655
:102350000F2001F029FE0A20FEF7E2FD1221009174
:1023600001226946102001F01FFE0020F8BD000088
:1023700070427566204552524F522121203A206EFC
:10238000756C6C20706F696E74657200034800682C
:10239000082108430149086070470000001C024002
:1023A0000348006804218843014908607047000021
:1023B000001C0240034800680421084301490860EA
:1023C00070470000001C02407047704701B50A23A7
:1023D000012269460148FFF729FE08BD38050020A3
:1023E00010B5002208210C48FEF7F7FEFFF7E2FFC8
:1023F000002204210848FEF7F0FE00F00FF8012249
:1024000008210548FEF7E9FE00F008F8002208213F
:102410000148FEF7E2FE10BD001C024000BF00BFF5
:1024200000BF00BF00BF00BF00BF00BF00BF00BFB4
:1024300000BF00BF00BF00BF00BF00BF00BF00BFA4
:1024400000BF00BF00BF00BF00BF00BF00BF00BF94
:1024500000BF00BF00BF00BF00BF00BF00BF00BF84
:1024600000BF00BF00BF00BF00BF00BF00BF00BF74
:1024700000BF00BF00BF00BF00BF00BF00BF00BF64
:1024800000BF00BF00BF00BF00BF00BF00BF00BF54
:1024900000BF00BF00BF00BF00BF00BF00BF00BF44
:1024A00000BF00BF7047000010B58EB00446600644
:1024B000000E15490870342101A8FDF76DFE0420B7
:1024C000019001200290049000200590089009904E
:1024D000039001A90D48FEF739FD0820019001A9DC
:1024E0000A48FEF733FDFFF765FFFFF74FFF0122B4
:1024F00004210648FEF771FE012208210348FEF779
:102500006CFE0EB010BD000000000020001C024058
:1025100010B5002208210C48FEF75FFEFFF74AFFC6
:10252000012204210848FEF758FEFFF777FF012239
:1025300008210548FEF751FEFFF770FF0022082131
:102540000148FEF74AFE10BD001C024070B505466A
:102550000024FFF725FF012204211448FEF73DFE69
:10256000002617E0002208211048FEF736FEFFF78C
:1025700055FF012208210D48FEF72FFE6006040ECC
:1025800000F0AAF8002801D0601CC4B2FFF746FF93
:10259000701CC6B2082EE5DB002D02D1FFF7B8FF94
:1025A00001E0FFF71DFF204670BD0000001C024047
:1025B00010B5FFF7FFFE012204210B48FEF70DFEC8
:1025C000012208210848FEF708FEFFF727FF002236
:1025D00004210548FEF701FEFFF720FF0022082135
:1025E0000148FEF7FAFD10BD001C024010B5FFF7D0
:1025F000E1FE002208210B48FEF7EFFD0022042136
:102600000848FEF7EAFDFFF709FF01220821054807
:10261000FEF7E3FDFFF702FF012204210148FEF768
:10262000DCFD10BD001C024010B50024FFF7B8FE11
:10263000FFF7F4FE012204210F48FEF7CEFD012230
:1026400008210D48FEF7C9FD07E0601C84B2642C28
:1026500003DDFFF7CBFF012010BD00F03DF800289F
:10266000F3D1FFF7DBFE002208210348FEF7B5FD9A
:10267000FFF7D4FE0020EFE7001C024070B50446CF
:10268000FFF798FE002521E080202040C01100289F
:1026900005D0012204210F48FEF79FFD04E000222F
:1026A00004210C48FEF799FD6006040EFFF7B6FE04
:1026B000012208210748FEF790FDFFF7AFFE002238
:1026C00008210448FEF789FD681CC5B2082DDBDB34
:1026D00070BD0000001C024010B504210148FEF747
:1026E00073FD10BD001C024010B5FEF749FF10BD80
:1026F00000B58DB0202105A8FDF74EFD002001900A
:102700000290039004900120059006900C480088E8
:10271000079005A8FFF7EEF8002801D0FEF77AFB36
:10272000072001900120029000200390049001A84E
:10273000FEF780FF002801D0FEF76CFB0DB000BD56
:10274000A00000180B480C4908620C480A4940399F
:1027500008620848401E08490862002006494039BE
:1027600008604860881588600020C86008610449D6
:10277000886070479966AA55400002400100695A76
:1027800000ED00E07047000010B50248FEF783FB43
:1027900010BD0000340000207047704710B502489B
:1027A000FFF7FDFA10BD0000D004002010B502486C
:1027B000FFF7F5FA10BD00000405002070B50446CF
:1027C0002E20005D222872D1206840690121084333
:1027D000216848612069C02842D16069002807D17A
:1027E00020684068C1B2626A501C6062117047E0A4
:1027F0006069012817D120684068C5B22D48415D45
:1028000020680068042210408008814204D1626A76
:10281000501C6062157033E0E0212E20015502202B
:102820002063012070BD6069022829D120684068BA
:10283000C5B22048415D206800680422104082082B
:1028400001209043814204D1626A501C606215707D
:1028500016E0E0212E200155022020630120E1E74F
:102860006069002805D0E0212E2001550120206359
:10287000D8E720684068C1B2626A501C606211707B
:10288000608D401E80B2608500280ED120680068EF
:10289000400840002168086020212E200155204674
:1028A000FFF76EFB0020BDE701E00020BAE7022041
:1028B000B8E70000F43F000070B504462169A06845
:1028C0000843A1690843216809682D221201914338
:1028D000084321680860FEF79FFFA168490A491C68
:1028E00048430546606841012846FDF701FC401E4B
:1028F00080B20121090440182168886170BD000080
:1029000010B504462D20005D21284CD12068406977
:102910000221084321684861608C411E61840028BF
:102920000DD1206800680221884321680860204694
:10293000FFF772FC20212D200155002010BD2069D9
:10294000C02828D1606901280DD1206800680821BD
:102950008843E1690978154A515CC907090F0843A2
:102960002168086010E0606902280DD120680068C5
:1029700008218843E16909780C4A525C012191439E
:10298000C900084321680860E169481CE0610878D3
:102990002168486005E0E169481CE0610878216829
:1029A00048600020CAE70220C8E70000F43F0000AA
:1029B000FFB581B004460D4617460A9E1DE0701C07
:1029C00000281AD0002E05D0FEF70EFC0499401AFC
:1029D000B04212D920680068800880002168086031
:1029E00020212D2001552E20015500BF00212C2033
:1029F000015500BF032005B0F0BD206800692840E4
:102A0000A84201D1012000E00020B842D7D0002028
:102A1000F1E77047704700000FB410B503A9044BED
:102A2000044A029800F084F810BC08BC04B01847AF
:102A30008D3700002C0000202021020C01D0102135
:102A40001046020A01D010460839020901D010468A
:102A5000091F820801D01046891E420801D0881E35
:102A60007047081A7047000010B5002819DB1A4A91
:102A700003231B02D21883089B00D2588307DC0E65
:102A8000FF23A3409A438B071B0E8407E40EA34049
:102A90001A43114B032424021B198408A4001A5161
:102AA00018E00E4A03071B0F083B9B089B00D258F7
:102AB0008307DC0EFF23A3409A438B071B0E84077A
:102AC000E40EA3401A43054B0407240F083CA40856
:102AD000A4001A5110BD000000E100E01CED00E070
:102AE000004870473000002001480068704700002F
:102AF0003000002002E008C8121F08C1002AFAD1E5
:102B000070477047002001E001C1121F002AFBD16D
:102B10007047000001490860704700003000002045
:102B200030380A2801D20120704700207047000089
:102B3000FFB58FB00F460446002606E025280AD0D0
:102B4000129A11999047641C761C20780028F5D1C0
:102B5000304613B0F0BD00250121A14A009500E0E8
:102B60000543641C23780846203B98401042F7D167
:102B700020782E2815D1042005436078641C2A286B
:102B80000AD101CF641C00900BE000990A22514346
:102B900030394018641C00902078014630390929EA
:102BA000F3D920786C280ED004DC4C2813D06A2886
:102BB00012D104E074280ED07A280DD10BE0012048
:102BC0004005054307E00121090562780D43824273
:102BD00001D16D18641C641C2078864669284AD08F
:102BE00008DC0028B4D058286DD0632810D06428A1
:102BF00008D140E070286BD0732812D0752860D0BF
:102C0000782860D0129A704611999047761CE5E0BA
:102C10003878694608720020487202A801900120A5
:102C200003E0386801900020C0433F1D69070CD5C0
:102C3000002500E06D1C00998D420FDA8542F9DB1A
:102C40000199495D0029F5D108E0002500E06D1CDF
:102C50008542FCDB0199495D0029F8D1761907E02E
:102C6000019801990078491C0191129A1199904795
:102C70006D1EF5D2B2E00A20029000216802400FDA
:102C8000039102280CD001CFC117844600290DDA28
:102C90006246084652420021814194462D2008E0B8
:102CA000FF1DFF08FF0003CF8446EFE7280504D58A
:102CB0002B206A46107401203CE0E8073AD020201F
:102CC000F7E70A2000E0102000210391029007E0BE
:102CD0001020029000210420054308200391009059
:102CE0006802400F022810D001CF00218446002046
:102CF0000D9028071FD5704670280CD0029A10201E
:102D0000039B42401A430CD015E0FF1DFF08FF0053
:102D100003CF8446EBE740206A46107401200D90F3
:102D20000CE06046084306D030206A4610747046B6
:102D3000507402200D907046582804D029A00190AC
:102D40000DA80E900DE02CA0F9E76046039B029AB7
:102D5000FDF72AFC019B84469B5C0E9A521E0E9244
:102D6000137060460843F0D10E9805A9081A203068
:102D70000190680701D5009801E0012000900199B9
:102D8000884203DD01460198081A00E00020002572
:102D9000009006E004A8129A405D119990476D1CBE
:102DA000761C0D988542F5DB04E0129A30201199CB
:102DB0009047761C0099481E00900029F5DC08E039
:102DC0000E980E990078491C0E91129A119990470D
:102DD000761C0199481E01900029F1DC641CB4E6C0
:102DE00009280100303132333435363738396162E1
:102DF00063646566000000003031323334353637A5
:102E0000383941424344454600000000F3B58DB0D7
:102E100000210B910991FE490D98086000201CE0EB
:102E20000D99095C0D2916D1421C0D99895C0A295E
:102E300011D100230D998B540999491CCAB20992EA
:102E4000811C0E9A914206DA821C0D998A18099902
:102E50008900EF4B5A50411C88B20E99491E81429D
:102E6000DEDC0026002493E3A100E94A5058FDF778
:102E70009EF9C1B208910025A100E54A5158C81C2D
:102E80000422E4A1FDF79AF900287DD10026FF2154
:102E9000C331E248FDF780F900271DE0A000DC49BE
:102EA0000858C05D2C2815D1781BDD4988557A1B40
:102EB000A000D749085843193046711CCEB2010111
:102EC000081AD6494118079119460798FDF74BF99A
:102ED000781CC5B2781CC7B208988742DEDB2F2168
:102EE000D048FDF759F9CE480278CC49CD48FDF7D6
:102EF0003AF9CB484278C9490F31CA480A30FDF740
:102F000032F9C7488278C5491E31C6481430FDF7EA
:102F10002AF9C348C278C1492D31C2481930FDF79A
:102F200022F9BF480279BD493C31BE481E30FDF749
:102F30001AF90F21BC48FDF72FF9BB49B948408960
:102F40000880B848027B4A71407B88710846B549C1
:102F5000C9894181B3481E30FDF73FF9B349088064
:102F6000B0481930FDF739F9B0498870AD481430D0
:102F7000FDF733F9AD49C870AB48FDF72EF9AB4901
:102F80000871A948401D00E036E0FDF726F9A74981
:102F90004871A5480A30FDF720F9A4498871A44872
:102FA000807A022810D108468079497900910190F1
:102FB0009E480379C278817807910788384600F0E7
:102FC000CFFD01219A4881729848008800129849E3
:102FD0002039087095480078487094488078887047
:102FE0009248C078C8709148007908718F4840793C
:102FF00048718E4880798871A100854A5158C81C53
:1030000004228CA1FDF7DAF800287CD1FF21C3311E
:103010008248FDF7C1F800271DE0A0007C49085850
:10302000C05D2C2815D1781B7D4988557A1BA000DE
:1030300077490858411930460791711CCEB20101F9
:10304000081A7649431818460799FDF78CF8781C3A
:10305000C5B2781CC7B208988742DEDB7721774873
:10306000FDF79AF86E4802786C497448FDF77BF8D2
:103070006B48427869490F3170480A30FDF773F8A0
:103080006748827865491E316C481930FDF76BF846
:103090006348C27861492D3168482830FDF763F8EC
:1030A0005F4802795D493C3164482A30FDF75BF89E
:1030B0005B48427959494B3160483930FDF753F844
:1030C0005748827955495A315C483B30FDF74BF8F7
:1030D0005348C2795149693158483D30FDF743F8AA
:1030E0004F48027A4D49783154484030FDF73BF85B
:1030F0004B48427A4949873150484F30FDF733F801
:103100004E48193000E031E100F0DCFA474AD16066
:1031100090604A482A3000F0D5FA444AD161906163
:1031200046482030407E1146087444482030017AD9
:1031300010462030017041483D30FDF74EF8C1B2D5
:103140003A48203041703D484F3000F0BBFA374AD2
:10315000D162906210462030407835492039C874D9
:103160001046C2688168059204910022344B0846DB
:103170000599FDF759F907910690FDF7DBF92C4900
:103180002039C8712948C2688168084607920691AB
:103190001146FDF7CFF987B264213846FCF7BEFF30
:1031A000C8B22349203908722048C268816808469D
:1031B000019200911146FDF7BDF987B23846FDF73F
:1031C000ABF9039102901948C2688168019200919D
:1031D0000A46019B03990298FDF7B6F80022194BA5
:1031E00005910490FDF7B8F807910690FDF7A2F954
:1031F0000A900A980002000E0D49203948720A9878
:103200000004000E88720A98C8720848007C1BE00F
:10321000C80100205A44412C000000004002002058
:103220000204002048010020B8010020780100209D
:10323000400400204747412C000000008800002087
:1032400000005940006AF8400873D748C269816994
:10325000059204910022D54B08460599FDF7E4F844
:1032600007910690FDF766F9D1494873CE48C269C7
:103270008069114607920690FDF75CF987B26421D8
:103280003846FCF74BFFC8B2C9498873C648C269C3
:1032900081690846019200911146FDF74BF987B20A
:1032A0003846FDF739F903910290BF48C269816938
:1032B000019200910A46019B03990298FDF744F898
:1032C0000022BC4B05910490FDF746F8079106904B
:1032D000FDF730F90A900A980002000EB449C8734D
:1032E0000A980004000E08740A984874AE4820300A
:1032F00000788874AC48C26A816A084607920691D1
:103300001146FDF717F90004000EA9490875A648F3
:10331000C26A806A114607920690FDF70BF9A4492C
:103320004875A148C26A806A114601920090FDF773
:1033300001F987B23846FDF7EFF8039102909A48F9
:10334000C26A816A019200910A46019B0399029820
:10335000FCF7FAFF0022954B05910490FCF7FCFF67
:1033600007910690FDF7E6F891498875A100924A09
:103370005158C81C042291A1FCF720FF00287DD1E0
:103380000026FF21C3318F48FCF706FF00271DE010
:10339000A00089490858C05D2C2815D1781B8A499E
:1033A00088557A1BA0008449085843193046711C7F
:1033B000CEB20101081A83494118079119460798AE
:1033C000FCF7D1FE781CC5B2781CC7B208988742BA
:1033D000DEDB49217D48FCF7DFFE7B480278794936
:1033E0007A48FCF7C0FE7848427876490F31774832
:1033F0000A30FCF7B8FE7448C27872492D31734820
:103400001930FCF7B0FE704842796E494B316F4875
:103410002830FCF7A8FE6C48C2796A4969316B48CC
:103420003730FCF7A0FE69480A3000F04BF95E4ADD
:10343000D16390636548283000F044F95A4A5163DB
:1034400010631046426B016B0846079206911146C5
:10345000FDF770F80004000E5549C87552494A6BD3
:10346000086B114607920690FDF764F850490876FC
:103470004D48426B006B1146019200E05BE000900A
:10348000FDF758F887B23846FDF746F803910290E9
:103490004548426B016B019200910A46019B0399DA
:1034A0000298FCF751FF0022404B05910490FCF775
:1034B00053FF07910690FDF73DF83D4948763A489D
:1034C000C26B806B114607920690FDF733F800043B
:1034D000000E374988763448C26B816B08460792E4
:1034E00006911146FDF726F83149C8762E48C26B81
:1034F000806B114601920090FDF71CF887B23846A8
:10350000FDF70AF8039102902748C26B816B019284
:1035100000910A46019B03990298FCF715FF0022CF
:10352000224B05910490FCF717FF07910690FDF7D9
:1035300001F81F4908770998401EA04226DDA10026
:103540001D4A5058032222A1FCF738FE002803D15F
:1035500001210B9808430B90A100174A50580322F1
:103560001CA1FCF72BFE002803D102210B98084375
:103570000B90A100104A5058032217A1FCF71EFE21
:10358000002803D104210B9808430B90601CC4B29F
:103590000998844200DA67E40B984107490F044810
:1035A000203081700FB0F0BD78010020000059403C
:1035B00020040020006AF840C80100205654472C1F
:1035C000000000004002002002040020FF00002054
:1035D000244750002442440024474C00F8B53348A7
:1035E00033490978461837787478B578BB2F02D0FC
:1035F000CC2F4CD132E02F4800782D490978401A61
:1036000003282ADB212C0CD12B492C4A128888183C
:10361000294600F0DDFB2948008840192749088029
:1036200016E06019B02813DC25490819294600F076
:10363000CFFB2A2C0CD86019401E2A2808D320481A
:103640002030807A012803D100211D48203081726A
:1036500017480078C01C1649087019E01548007812
:1036600013490978411AE81C81420FDB14490819F3
:103670002A46F11CFCF777FD2946204600F004FCA1
:10368000E81C0B49097840180949087000E000BFA0
:1036900000BF0748007807490978884204D1002014
:1036A0000449087002490870F8BD00006C0500204C
:1036B0001500002014000020EC0500201000002060
:1036C0002004002030B583B00446FFF70DFA05460C
:1036D000002000900246019021466846FCF7D3FF87
:1036E0002846FFF717FA0199009803B030BD10B5CE
:1036F00004460A212046FCF711FD06214843001923
:10370000C0B210BD70B503460C467D200001834257
:1037100001DB181A83B21146012006E0451E104E47
:10372000755D6D18A9B2451CE8B2A042F6DB022C0B
:1037300009DD1846DD17AD0F2D18AD10AD005D1B6E
:1037400001D1481C81B2DD1CE817800F401986109A
:10375000FF206E30584340183018401E80B270BDB4
:10376000E83F000010B5012208210248FDF735FDB1
:1037700010BD00000010024010B5002208210248D0
:10378000FDF72BFD10BD00000010024070B504468F
:103790000D46E0B2FEF71AFE002070BD0146092971
:1037A00003DC08463030C0B270470A2905DB0F2918
:1037B00003DC08463730C0B2F6E70846F4E70000FD
:1037C00066200849887744210648A030C1724F21FD
:1037D000817233214173432101730121C17300219F
:1037E000817370472004002038B5044600BF174895
:1037F000C068012108431549C8600846C068C00771
:10380000C00F009000BF00BF480311490860084680
:103810004460012149028160402101610021416130
:1038200010218161FEF70BFB002801D0FDF7F2FAB1
:10383000012208490648FEF775FB01210620FDF725
:10384000F1FE0620FDF7DCFE38BD0000000002405E
:10385000D00400201800002038B5044600BF1748E7
:10386000C068022108431549C8600846C0680221A3
:103870000840009000BF00BF114812490860084688
:1038800044600121490281604021016100214161C0
:1038900010218161FEF7D3FA002801D0FDF7BAFAB2
:1038A000012209490748FEF73DFB01210720FDF7EA
:1038B000B9FE0720FDF7A4FE38BD0000000002405D
:1038C00000040040040500201900002000B58DB060
:1038D00034216846FCF760FC08200090012001902C
:1038E00000200390049007900890029069461048C9
:1038F000FDF72CFB1020009069460E48FDF726FBD3
:103900002020009069460B48FDF720FB002208218B
:103910000748FDF762FC012220210648FDF75DFC07
:10392000012210210348FDF758FC0DB000BD000036
:10393000001002400014024008B5FDF72DFEFEF70E
:10394000D7FE00BF58488068012108435649886067
:1039500008468068C007C00F009000BF00BF00BFCE
:1039600008468068022108434F49886008468068FD
:1039700002210840009000BF00BF00BF4A48806895
:1039800004210843484988600846806804210840AB
:10399000009000BF00BF00BF434880680821084373
:1039A000414988600846806808210840009000BFAF
:1039B00000BFFFF705FFFFF789FF00F021FAFEF7D0
:1039C00037FC0020FEF770FD00F0B6F8E120400261
:1039D000FFF70AFF4B20C001FFF73EFF7D20C0002C
:1039E000FDF79EFA31A000F095F96420FDF798FAF2
:1039F000E1204002FFF730FF02212D48817251E0A3
:103A00002C480078012808D100202A4908702A484B
:103A100001782A48007800F037FA2548C07A002853
:103A20000ED03C2126480088FCF778FB2049C97A53
:103A3000884205DB02211E4881720020204908804F
:103A40002048007805280EDD1F480078002807D0A0
:103A500001E0FFF7C3FD1C4800780328F9DA02E013
:103A60000020184908701948007805281ADD184800
:103A70000088002813DD1648008800120C49203900
:103A8000C87713480088C1B20948017010480188FE
:103A90001048FFF7BBF900200D49088002E0002024
:103AA0000A490870ACE70000000002403500000041
:103AB0004004002008000020090000200A00002027
:103AC0000600002002000020140000200300002057
:103AD00016000020EC050020F8B507460E461546F6
:103AE000FEF766FD13480078FEF7C8FDFEF79CFD63
:103AF0003846FEF7C3FDFEF797FDFEF759FD0D4969
:103B00000978012211430846FEF7B8FDFEF78CFD47
:103B100000240AE0691EA14201D0012100E0002139
:103B20000846FEF713FD3055641CAC42F2DBFEF78D
:103B30005DFDF8BD0000002008B5322000F008F857
:103B400080200090012269461720FEF7D7FB08BDB0
:103B50004106090E014A1170704700000000002064
:103B6000F0B587B005460E4617461C460020069065
:103B7000059002907D200001281AC0B205903248BD
:103B80000078002806D12046FFF7B1FD80210843C8
:103B900006901EE0002C02D11220069019E0002CA5
:103BA00006DD0C2C04DA2046FFF7A1FD069010E09C
:103BB0000C2C02D1322006900BE00C2C09DD182CC5
:103BC00007DA21460C39C8B2FFF791FD20210843DE
:103BD00006903A4631462846FFF794FD801D07219E
:103BE0000190FCF79BFAC8B2029018A00299FEF768
:103BF00013FF0D98FFF77BFD694608730C98FFF7DC
:103C000076FD014668464173069981730298FFF775
:103C10006EFD01466846C1733846FFF768FD0146F0
:103C2000684601743046FFF762FD014668464174FC
:103C30000598FFF75CFD69468874072203A90020F8
:103C4000FEF75CFB07B0F0BD120000207765656BE6
:103C5000203D2025750D0A00F0B59BB005462AA72A
:103C6000642102A8FCF798FA002600243846FCF7E5
:103C70009EFA02463946019002A8FCF774FA3846CB
:103C8000FCF795FA401CC4B22878302806DB287867
:103C9000372803DC28786946087401E01BB0F0BDC2
:103CA000012004E002A9095C4E40411CC8B2A042B8
:103CB000F8DB2A222146601CC4B202A84254F0213B
:103CC00031400811FFF76AFD2146621CD4B202AAF6
:103CD00050543007000FFFF761FD2146621CD4B23B
:103CE00002AA50540D222046611CCCB202A90A54EB
:103CF0000A222146601CC4B202A84254214600F0A8
:103D000073F800BFCAE70000245043415330342CFD
:103D100000000000F0B59BB005462AA7642102A868
:103D2000FCF73AFA002600243846FCF740FA02462F
:103D30003946019002A8FCF716FA3846FCF737FA24
:103D4000401CC4B22878302806DB2878352803DCEC
:103D500028786946087401E01BB0F0BD012004E03A
:103D600002A9095C4E40411CC8B2A042F8DB2A22DD
:103D70002146601CC4B202A84254F021314008110F
:103D8000FFF70CFD2146621CD4B202AA5054300742
:103D9000000FFFF703FD2146621CD4B202AA505463
:103DA0000D222046611CCCB202A90A540A222146E7
:103DB000601CC4B202A84254214600F015F800BFAE
:103DC000CAE70000245043415330312C000000006A
:103DD00070B504460D462A4621460248FEF7B8F95A
:103DE00070BD0000D004002070B504460D462A4680
:103DF00021460248FEF7ACF970BD00000405002022
:103E000008B500BF1A48C068402108431849C86077
:103E10000846C06840210840009000BF00BF154818
:103E200015490860002114480161402141610021C9
:103E30008161C1610621016210494162FCF7FFFF07
:103E4000002801D0FCF7E6FF0F20FDF7D9FB002189
:103E50000F20FDF7E7FB0848FDF70EF8002801D01A
:103E6000FCF7D8FF0020064908700649087008BD15
:103E700000000240001900403400002088FE0000CD
:103E80000200002003000020F3B581B004460025A5
:103E90000026214638A0029AFEF7BEFD58E0232CEA
:103EA00019D004DC1D2C07D0222C46D108E02B2C85
:103EB00034D02E2C41D11CE000203749088044E04A
:103EC000002000903549085DFFF768FC00906846C7
:103ED000FFF7C2FE39E03148005D002802D1FFF74C
:103EE0004BFC05E02D48005D012801D1FFF73AFCAD
:103EF0002BE02A482030877BC07B0090302F0CDBE2
:103F0000792F0ADC0098002807D0244AD1193A46B4
:103F1000303AD0B2009AFEF7D1F916E01F482030AF
:103F2000C07A002808D002211C482030817200206D
:103F30001B4908801B49088007E0302C04DB302D2A
:103F400000DA2546701CC6B200BF00BF601CC4B2B8
:103F50000298411EC9B202910028A0D1002E0ADDAC
:103F6000A819A22807DC0D4A51192A46303AD0B2C6
:103F70003246FEF7C3F9FEBD725F61646472657319
:103F800073203D2025752C206C656E677468203D7C
:103F90002025750D0A0000001000002020040020DC
:103FA0000400002006000020F8B507460D4616461E
:103FB000FEF7FEFA0B480078FEF760FBFEF734FBD5
:103FC0003846FEF75BFBFEF72FFB002405E0285D7B
:103FD000FEF754FBFEF728FB641CB442F7DBFEF748
:103FE00005FBF8BD000000201F1C1F1E1F1E1F1F09
:103FF0001E1F1E1F00010100010000010100000141
:1040000000010100010000010001010000010100A8
:104010000100000101000001000101000001010098
:104020000100000100010100010000010100000188
:104030000001010001000001000101000001010078
:104040000100000100010100010000010100000168
:104050000001010000010100010000010100000158
:104060000001010001000001000101000001010048
:104070000100000101000001000101000001010038
:104080000100000100010100010000010100000128
:104090000001010000010100010000010100000118
:1040A0000001010001000001000101000001010008
:1040B00001000001000101000100000101000001F8
:1040C00000010100010000010001010000010100E8
:1040D00001000001010000010001010000010100D8
:1040E00001000001000101000100000101000001C8
:1040F00000010100004040404040404040404141FC
:1041000041414140404040404040404040404040AC
:104110004040404040050202020202020202020246
:104120000202020202202020202020202020200243
:1041300002020202020290909090909010101010D3
:10414000101010101010101010101010101010106F
:104150000202020202028888888888880808080803
:1041600008080808080808080808080808080808CF
:104170000202020240000000F54000009C410000E5
:104180000000002034000000F42A0000D0410000AC
:1041900034000020E40C0000042B000000000000AC
:1041A000000000000000000000000000000000000F
:1041B00000000000000000000000000004000000FB
:1041C0000100000000093D000000000000000000A8
:04000005000000C136
:00000001FF
